:10000000E03F0010151C0000811C0000811C000056
:10001000811C0000811C0000811C00000000000009
:10002000000000000000000000000000811C000033
:10003000811C000000000000811C0000811C0000E9
:10004000811C0000690A0000811C0000811C000066
:10005000811C0000811C0000811C0000811C00002C
:10006000811C0000811C0000811C0000811C00001C
:10007000811C0000811C0000811C0000811C00000C
:10008000811C0000811C0000811C0000811C0000FC
:10009000811C0000811C0000811C0000811C0000EC
:1000A000091C0000811C0000E10B0000811C000005
:1000B000811C0000811C0000811C0000811C0000CC
:1000C000811C0000811C0000811C000008B505484F
:1000D000054B1B1A062B00D808BD044B002BFBD088
:1000E0009847F9E70405001007050010000000001C
:1000F00008B50748074B1B1A9B1003EBD373591025
:1001000000D108BD044A002AFBD09047F9E700BFA0
:1001100004050010040500100000000010B5064C96
:10012000237843B9FFF7D2FF044B13B10448AFF370
:1001300000800123237010BD0405001000000000A2
:100140008434000008B5074B1BB107480749AFF3DB
:1001500000800748036813B1064B03B19847BDE818
:100160000840C5E7000000008434000008050010C6
:10017000040500100000000001460020024603466E
:1001800000F048B838B543F2A84443F2A445C0F2A1
:100190000005C0F20004641BA41018BF05EB840521
:1001A00005D0013C55F8043D9847002CF9D1BDE835
:1001B000384003F071B900BF70B543F2904643F286
:1001C0009045C0F20005C0F20006761BB6101CBFB9
:1001D000043D002405D0013455F8043F9847A64259
:1001E000F9D143F2984643F29045C0F20005C0F2BF
:1001F0000006761B03F046F9B6101CBF043D002430
:1002000006D0013455F8043F9847A642F9D170BD95
:1002100070BD00BFF0B543F25434C0F2000426684C
:1002200085B0D6F848410746002C43D065681F2D9D
:1002300021DD40F20004C0F200041CB94FF0FF3091
:1002400005B0F0BD4FF4C870039102920193AFF373
:10025000008003990446029A019B0028EED0D6F84C
:1002600048510020256060600546C6F84841C4F842
:100270008801C4F88C013FB96B1C00200235636013
:1002800044F8251005B0F0BD0126AE4004EB850012
:10029000C0F88820D4F88821022F42EA0602C4F868
:1002A0008821C0F8083102BFD4F88C311E43C4F84D
:1002B0008C61E1E706F5A674C6F84841B6E700BFD1
:1002C00040F20003C0F200032BB140F28510C0F2EF
:1002D0000000FFF751BF704780B400AF044B00220D
:1002E0001A60044B00221A60BD465DF8047B70471B
:1002F000340500103805001080B485B000AF786078
:100300002A4B1B68DBB203F07F03FB72284B1B6890
:10031000DBB203F07F03BB72BB7A0133DBB203F0C5
:100320007F037B72FA7A7B7A9A4201D1002337E00D
:10033000BB7A204A1278D2B21F499B010B44DA7073
:10034000BB7A1E4A12681C499B010B445A601C4B25
:1003500002221A600023FB600EE0BB7AFA6879681B
:100360000A44127814499B011944FB680B44083372
:100370009A71FB680133FB60FB68312BEDDDBB7AC2
:10038000104A1278D2B20C499B010B445A700D4BA3
:1003900000221A70064B1B685A1C054B1A60012379
:1003A00018461437BD465DF8047B704734050010CD
:1003B00038050010FC050010000600100840004041
:1003C00038C009203005001080B582B000AF144B52
:1003D0001B68DBB203F07F03FB71124B1B68DBB2BF
:1003E00003F07F03BB71FA79BB799A4204D10E4BBB
:1003F00002221A6000230EE0FB799A010B4B134492
:1004000082201946402202F057FA054B1B685A1CFD
:10041000034B1A60012318460837BD4680BD00BF54
:1004200034050010380500103CC0092000060010FB
:1004300080B590B000AFF860B9607A607B681B68E7
:10044000FB63FB685B78212B00F2A88201A252F8C3
:1004500023F000BFDD040000E50400009D0900005A
:100460000D0500002D050000450500006505000094
:100470007D0500009D050000B9050000D9050000BC
:100480006F08000095080000490600004F060000B4
:10049000F50500002D0700004D0700008107000052
:1004A000A1070000BD070000490800005108000036
:1004B00063080000DB080000F90800009D09000047
:1004C00005090000C5070000E10700000908000059
:1004D00001080000110800005B090000BB68002251
:1004E0001A605DE2FB685B881A469C4B1B681A44E5
:1004F0009A4B1A60994B1B68002B03D1974B4FF016
:10050000FF321A60BB6800221A6049E2944B1B68F4
:1005100003F00203002B0CBF00230123DBB21A46B9
:10052000FB6B1A70BB6801221A6039E2FB685B88BA
:10053000002B03D08B4B02221A6031E28A4B02223D
:100540001A602DE2864B1B6803F01003002B0CBFD2
:1005500000230123DBB21A46FB6B1A70BB68012231
:100560001A601DE2FB685B88002B03D07D4B1022D4
:100570001A6015E27C4B10221A6011E2784B1B685E
:1005800003F48073002B0CBF00230123DBB21A4657
:10059000FB6B1A70BB6801221A6001E2FB685B8882
:1005A000002B04D06F4B4FF480721A60F8E16E4B51
:1005B0004FF480721A60F3E1694B1B6803F4007317
:1005C000002B0CBF00230123DBB21A46FB6B1A7011
:1005D000BB6801221A60E3E1FB685B88002B04D052
:1005E000604B4FF400721A60DAE15F4B4FF4007217
:1005F0001A60D5E136237B625C4B1B6807F124014E
:1006000007F110020846114698473B69DAB2FB6BC6
:100610001A70FB6B01337A69D2B21A70FB6B02332A
:100620007A69120AD2B21A70FB6B03337A69120C20
:10063000D2B21A70FB6B04337A69120ED2B21A70FE
:10064000BB6805221A60ABE101F03AFEA8E13A234B
:100650007B62464B1B6807F1240107F11002084634
:10066000114698473B69DAB2FB6B1A70FB6B01339A
:100670007A69D2B21A70FB6B02337A69120AD2B26B
:100680001A70FB6B03337A69120CD2B21A70FB6BCF
:1006900004337A69120ED2B21A70FB6B0533BA6951
:1006A000D2B21A70FB6B0633BA69120AD2B21A7050
:1006B000FB6B0733BA69120CD2B21A70FB6B0833AA
:1006C000BA69120ED2B21A70FB6B0933FA69D2B250
:1006D0001A70FB6B0A33FA69120AD2B21A70FB6BFA
:1006E0000B33FA69120CD2B21A70FB6B0C33FA6935
:1006F000120ED2B21A70FB6B0D333A6AD2B21A7074
:10070000FB6B0E333A6A120AD2B21A70FB6B0F33CC
:100710003A6A120CD2B21A70FB6B10333A6A120E9C
:10072000D2B21A70BB6811221A6039E1104B1B68F3
:1007300003F08003002B0CBF00230123DBB21A4619
:10074000FB6B1A70BB6801221A6029E1FB685B88A9
:10075000002B11D0074B80221A6021E12C050010DC
:1007600034C0092038C009203CC0092048040010CA
:1007700054C0092058C009208C4B80221A600FE118
:100780008B4B1B6803F48073002B0CBF00230123E9
:10079000DBB21A46FB6B1A70BB6801221A60FFE0DD
:1007A000FB685B88002B04D0824B4FF480721A6088
:1007B000F6E07E4B4FF480721A60F1E07E4B03222C
:1007C0001A60EDE0052001F011FC0346DBB203F0F6
:1007D0000703DAB2FB6B1A70BB6801221A60DFE014
:1007E000FB685B88072B09D8FB685B8843F008032C
:1007F0009BB20520194601F00FFCD1E00023D0E0A8
:100800006D4B05221A60CBE06B4B06221A60C7E0E5
:100810006A4B1A78FB6B1A70FB6B0133674A52788C
:100820001A70FB6B0233654A92781A70FB6B0333C4
:10083000624AD2781A70FB6B0433604A12791A70DC
:10084000BB6805221A60ABE05B4B00221A60A7E090
:100850005B4B1B68DAB2FB6B1A70BB6801221A6033
:100860009EE0FB685B881A46554B1A6098E0554B32
:100870001B889BB2DAB2FB6B1A70FB6B0133514AD7
:10088000128892B2120A92B2D2B21A70BB680222D5
:100890001A6085E0FB685A884A4B1A80494B1B88CE
:1008A0009AB240F6DC039A4203D9464B1B889BB2AE
:1008B00001E040F6DC03434A1380424B1B889AB2A6
:1008C00040F6E9239A4203D83E4B1B889BB201E0D5
:1008D00040F6EA233B4A138062E039237B623A4BBD
:1008E0001B6807F1240107F11002084611469847DA
:1008F000BB6800221A6053E0344B354A1A6001F09D
:10090000DFFC4DE0FB685B88B3F5006F14D9FB6832
:100910005B88B3F5406F0FD8FB689B88B3F5006F19
:100920000AD9FB689B88B3F5406F05D8FB689A88A5
:10093000FB685B889A4201D2002332E0FB685A8848
:10094000244B1A80FB689A88234B1A801A4B042286
:100950001A60BB6800221A6022E0FB6B00221A704A
:10096000FB6B013300221A701C4802F0C3FC0346E3
:1009700087F83B30FB6B023397F83B201A70FB6B18
:10098000DA1C97F83B30104614491A4602F03CFC3A
:1009900097F83B30DA1CBB681A6001E0002300E0E6
:1009A000012318464037BD4680BD00BF5CC009200A
:1009B00054C0092058C00920240500104426001006
:1009C0002805001054040010480400101C000010FA
:1009D00021BB0543560400105804001018340000D1
:1009E00080B500AF01F0D0FD064802F0EDF902201D
:1009F0000549064A01F0A4FD012001F003FF002390
:100A0000184680BD58330000310400003C0500103A
:100A100080B400AF0D4B02221A600D4B00221A70F9
:100A20000C4B04221A600C4B0C4A1A600C4B03222C
:100A30001A600C4B0B4A126842F002021A60034B18
:100A400001221A60BD465DF8047B704704400040F7
:100A5000FC0500100C40004018400040FFFF4FC351
:100A60001440004000E100E080B400AF4FF04023AC
:100A70001B6803F00103002B0ED0094B1B78DBB27F
:100A80000133DAB2064B1A704FF040234FF0402288
:100A9000126842F001021A60BD465DF8047B70479F
:100AA000FC05001080B400AF344B344A126842F0A9
:100AB00000521A60324B00221A60324B00221A6038
:100AC000314B00221A60314B00221A60304B002259
:100AD0001A60304B00221A602F4B00221A602F4BF5
:100AE00000221A602E4BFF221A602E4BFF221A6042
:100AF0002D4B2E4A1A602E4A2B4B5A602D4A2A4BF8
:100B00009A60294B2C4ADA602A4B284A1A602B4AF1
:100B1000284B5A60244A274B9A60264B264ADA60B3
:100B2000274B274A126822F080621A60254B012267
:100B30001A6000BF234B1B6803F00103002BF9D0A0
:100B4000214B194A12681A60204B174A52681A60E2
:100B50001F4B154A92681A601E4B134AD2681A60DE
:100B6000074B4DF206021A601B4B00221A601B4B0A
:100B700000221A60BD465DF8047B7047C4C00F4078
:100B80001041005030410050504100507041005021
:100B900090410050B0410050D0410050F041005011
:100BA0000840005010400050342600100800034058
:100BB0004C260010EC050010329000880026001032
:100BC00000E100E03040005000410050044100507E
:100BD000084100500C410050E8050010802600102C
:100BE00080B400AF154B1B6803F00103002B21D02C
:100BF000134B1B6803F00103002B0AD0114B114A61
:100C0000126842F001021A600F4B1B685A1C0E4B0F
:100C10001A600E4B1B6803F00103002B0AD00C4B2B
:100C20000B4A126842F001021A600A4B1B685A1CF8
:100C3000084B1A60BD465DF8047B704700400050C9
:100C40000440005008400050E80500100C400050DF
:100C5000104000508026001080B400AF114B4FF0C0
:100C600080521A60104B104A126842F001021A605A
:100C70000E4B0E4A126842F002021A600C4B0C4AEC
:100C8000126842F001021A600A4B0A4A126842F0E6
:100C900080621A60084B4FF080521A60BD465DF8C2
:100CA000047B704798C009202400034004000340DF
:100CB0001041005000E100E09CC0092080B500AF69
:100CC000354B1B68002B21D10D2047F6FF7101F039
:100CD000A3F9122042F6223101F09EF9142041F2CC
:100CE0004B3101F099F9202040F2011101F094F903
:100CF0002A4B1B889BB2013B9BB20220194601F094
:100D00008BF90320292101F087F926E0224B1B688B
:100D1000012B21D10D2047F6FF7101F07DF9122042
:100D200042F6223101F078F9142041F24B3101F002
:100D300073F9202040F2011101F06EF9174B1B8866
:100D40009BB2013B9BB20220194601F065F90320DA
:100D5000402101F061F900E01CE000BF01F09CF9C6
:100D6000034603F04003002BF8D0612001F09EF908
:100D700000BF01F091F9034603F00403002BF8D003
:100D8000622001F093F9064B80221A60044B4FF465
:100D900080721A6080BD00BF280500105404001046
:100DA00058C0092080B500AF2F4B1B68002B1AD10B
:100DB0000D2047F6FF7101F02FF9122042F6223183
:100DC00001F02AF9142043F24B3101F025F9274BA9
:100DD0001B889BB20220194601F01EF9032029212D
:100DE00001F01AF91FE0204B1B68012B1AD10D20CE
:100DF00047F6FF7101F010F9122042F6223101F09E
:100E00000BF9142043F24B3101F006F9174B1B8804
:100E10009BB20220194601F0FFF80320402101F0A7
:100E2000FBF800E01FE000BF01F036F9034603F0D5
:100E30004003002BF8D0612001F038F900BF01F029
:100E40002BF9034603F00403002BF8D0084B4FF4B2
:100E500080721A60632001F029F9064B80221A6023
:100E6000054B03221A6080BD2805001054040010B1
:100E700038C0092058C00920200500102DE9F04F86
:100E800095B000AF6E467E60162687F84660002655
:100E900087F8476097F84660B6460EF1FF3EC7F800
:100EA00040E05FFA86FA4FF0000B4FEACB0949EABF
:100EB0005A794FEACA085FFA86F84FF000094FEAFC
:100EC000C90545EA58754FEAC80434460734E408B2
:100ED000E400ADEB040D6C460034FC6397F846600B
:100EE0003446013CBC63F4B24FF00005E90041EA2E
:100EF0005471E000F0B24FF00001CB0043EA5073B0
:100F0000C20033460733DB08DB00ADEB030D6B4655
:100F100000337B63A94B05221A6097F84630013BEA
:100F2000DAB2FB6B1A70FB6B00225A703A233B62F9
:100F3000A34B1B6807F1200107F10C02084611467C
:100F40009847FB68DBB2002B01D00023B4E13B697A
:100F50001B0EDAB2FB6B9A703B691B0CDAB2FB6BAF
:100F6000DA703B691B0ADAB2FB6B1A713B69DAB2C1
:100F7000FB6B5A717B691B0EDAB2FB6B9A717B6952
:100F80001B0CDAB2FB6BDA717B691B0ADAB2FB6B02
:100F90001A727B69DAB2FB6B5A72BB691B0EDAB24A
:100FA000FB6B9A72BB691B0CDAB2FB6BDA72BB6922
:100FB0001B0ADAB2FB6B1A73BB69DAB2FB6B5A73AA
:100FC000FB691B0EDAB2FB6B9A73FB691B0CDAB27E
:100FD000FB6BDA73FB691B0ADAB2FB6B1A74FB69F1
:100FE000DAB2FB6B5A74FB6B97F847209A74FB6B71
:100FF0000022DA74FB6BFF221A75FB6BFF225A7515
:101000000D2047F6FF7101F007F8122042F6223159
:1010100001F002F8142041F24B3100F0FDFF694B62
:101020001B889BB20220194600F0F6FF2D204FF6D8
:10103000AE1100F0F1FF2C2041F2845100F0ECFFE2
:1010400097F8473043F00803DBB20520194600F05B
:10105000E3FF0320292100F0DFFF00BF01F01CF8AF
:10106000034603F04003002BF8D0612001F01EF886
:1010700000BF01F011F8034603F00403002BF8D081
:10108000514B4FF480721A60504B80221A6000233B
:1010900087F847303DE097F8473043F00803DBB26C
:1010A0000520194600F0B8FFFB6B97F847209A74AB
:1010B0000023FB6425E0FB6CDAB2FB6BDA7400BF43
:1010C0000E2000F093FF034603F01F030F2BF7D110
:1010D0000023BB640AE0FA6BBB6C13441B787020DE
:1010E000194600F0C5FFBB6C0133BB6497F846207E
:1010F000BB6C9A42EFDC632000F0D8FFFB6C01333D
:10110000FB64FB6C0F2BD6DD97F84730013387F873
:10111000473097F84730072BBDD900BF0E2000F0AD
:1011200065FF034603F01F030F2BF7D1284B4FF445
:1011300080721A60642000F0B9FF00BF00F0ACFFBD
:10114000034603F00403002BF8D11E4B1B889BB20F
:10115000013B9BB20220194600F05EFF00BF00F089
:101160009BFF034603F04003002BF8D0612000F002
:101170009DFF00BF00F090FF034603F00403002B27
:10118000F8D0114B10221A6000BF0E2000F02EFF85
:10119000034603F01F030F2BF7D1622000F086FFF8
:1011A00000BF00F079FF034603F01003002BF8D0D6
:1011B000054B02221A600023BB6417E020050010D3
:1011C000480400105404001038C0092058C00920F9
:1011D0003CC00920702000F033FF03461A46796BAB
:1011E000BB6C0B441A70BB6C0133BB6497F8462090
:1011F000BB6C9A42EEDC00F04FFF034603F008039D
:10120000002B01D000BF04E02F4B02221A6000BF68
:10121000BAE70E2000F0EAFE034603F01F030F2B8F
:10122000F7D1642000F042FF00BF00F035FF034615
:1012300003F00403002BF8D1244B80221A60224BC8
:1012400010221A60224B01221A707B6B9A7C204B71
:101250005A707B6BDA7C1E4B9A707B6B1A7D1C4B31
:10126000DA707B6B5A7D1A4B1A71FB6B01225A7034
:101270000023FB640FE07A6BFB6C13441A78F96B64
:10128000FB6C0B441B789A4202D0114B00221A705F
:10129000FB6C0133FB64FB6C112BECDD0A4B02226F
:1012A0001A600C4B00221A600B4B1B68052B02D1F5
:1012B000094B00221A6001237A689546012B5437A6
:1012C000BD46BDE8F08F00BF3CC009205CC00920CE
:1012D000442600102005001024050010F0B587B04A
:1012E00000AF1624BC730024FC73BE7B3446013C63
:1012F000BC60F4B24FF00005E90041EA5471E0002F
:10130000F0B24FF00001CB0043EA5073C200334605
:101310000733DB08DB00ADEB030D6B4600337B606E
:10132000894B06221A600D2047F6FF7100F074FE0B
:10133000122042F6223100F06FFE142041F24B31B0
:1013400000F06AFE814B1B889BB2013B9BB20220DE
:10135000194600F061FE2D204FF6AE1100F05CFE44
:101360002C2041F2845100F057FE0520082100F0A6
:1013700053FE0320292100F04FFE00BF00F08CFE39
:10138000034603F04003002BF8D0612000F08EFEEE
:1013900000BF00F081FE034603F00403002BF8D0E9
:1013A0006B4B10221A606B4B4FF480721A60694BC2
:1013B00002221A60684B80221A6000BF0E2000F0E3
:1013C00015FE034603F01F030F2BF7D1614B0222DA
:1013D0001A60622000F06AFE00BF00F05DFE034666
:1013E00003F01003002BF8D0594B02221A6000239F
:1013F0007B610BE0702000F023FE03461A467968FB
:101400007B690B441A707B6901337B61BA7B7B6912
:101410009A42EFDC00F040FE034603F00803002B85
:1014200003D000BF4D4B7B6101E000BFC5E77B6986
:10143000013B7B617B69002BF9D1464B02221A608C
:10144000444B10221A60642000F030FE00BF00F010
:1014500023FE034603F00403002BF8D100BF00F085
:101460001BFE034603F04003002BF8D0374B1B88CC
:101470009BB20220194600F0CFFD00BF00F00CFE29
:10148000034603F04003002BF8D0612000F00EFE6D
:101490002F4B4FF480721A60BB7B013BDAB27B6842
:1014A0001A707B6801225A700023FB7338E0FB7BC3
:1014B00043F00803DBB20520194600F0ADFD7B6860
:1014C000FA7B1A7500237B6124E07B69DAB27B68C2
:1014D0005A7500BF0E2000F089FD034603F01F037C
:1014E0000F2BF7D100233B610AE07A683B69134474
:1014F0001B787020194600F0BBFD3B6901333B614E
:10150000BA7B3B699A42F0DC632000F0CFFD7B6937
:1015100001337B617B690F2BD7DDFB7B0133FB73D1
:10152000FB7B072BC3D90B4B4FF480721A606420EE
:1015300000F0BCFD00BF00F0AFFD034603F0040364
:10154000002BF8D1EFE600BF200500105404001076
:1015500038C009203CC0092058C0092080841E00E2
:1015600080B582B000AF00237B603F4B10221A6031
:10157000FEF7B2FE00F07EFCFFF794FAFFF76CFB7B
:10158000FFF79CFB65E000BF384B1B68002B03D1C5
:10159000374B1B68002BF7D0344B1B6803F001035B
:1015A000002B09D0334B1B687B60334B1A68314BDF
:1015B0001A60314B7A681A602D4B1B68002B07D0DC
:1015C0002E4B1B78DBB243F00203DAB22B4B1A70BE
:1015D000264B1B68002B21D0244B1B68012B07D9FD
:1015E000264B1B78DBB243F00103DAB2234B1A70AF
:1015F000214B1B681846FEF77FFE0346002B05D0E3
:101600001F4B1B685A1E1E4B1A6007E01B4B1B78B2
:10161000DBB243F00403DAB2184B1A70822001F0F7
:1016200011F90346FB70FB7803F02003002B01D176
:10163000FEF7CAFEFB7803F04003002B01D1FEF752
:10164000C3FE01F0FFF9094B00221A60084B00228B
:101650001A600B4B1B68002B95D10A4B10221A60A5
:101660000837BD4680BD00BF38C00920E80500101E
:10167000802600104C0400105004001030050010AB
:101680002C0500103CC0092090B58FB000AF00239E
:1016900087F83530604B10221A60FEF71DFE5F4B55
:1016A00080221A600D2047F6FF7100F0B5FC122071
:1016B00042F6223100F0B0FC142041F24B3100F030
:1016C000ABFC202040F2011100F0A6FC03202921F0
:1016D00000F0A2FC00BF00F0DFFC034603F0400373
:1016E000002BF8D000BF00F0D7FC034603F0040342
:1016F000002BF8D182E04A4B1B88FB8677E0FB8EFB
:10170000013B9BB20220194600F086FC612000F0EC
:10171000CDFC00BF00F0C0FC034603F00403002B27
:10172000F8D0622000F0C2FC97F8352013465B0029
:101730001344FA8E120A92B2D2B207F138010B4466
:1017400003F8382C97F8352013465B001344013317
:10175000FA8ED2B207F138010B4403F8382C97F80F
:10176000352013465B0013449C1C062000F03EFC11
:1017700003461B0A9BB2DAB207F13803234403F88D
:10178000382C97F83530013387F8353097F83530F5
:10179000102B1ED13B461846FEF7AEFD002387F8FE
:1017A0003530822001F04EF8034687F8343097F840
:1017B000343003F02003002B01D1FEF705FE97F82B
:1017C000343003F04003002B01D1FEF7FDFD01F0A2
:1017D00039F9642000F06AFC00BF00F05DFC0346AC
:1017E00003F00403002BF8D1FB8E0133FB86FA8E45
:1017F0000C4B1B889BB201339A4280DB0A4B1B685F
:10180000042B3FF478AF094B00221A60084B1022DA
:101810001A603C37BD4690BD38C0092058C0092029
:101820005604001058040010240500102005001074
:101830003CC00920F0B492B000AF78604F4B1C461A
:1018400007F1080504F1300C2E4623461868596844
:101850009A68DB680FC6103410356445F4D12B4606
:1018600022461068516803C300237B647CE0002398
:101870003B6473E07B6C7A68134419783A6C1346C6
:10188000DB009B1A07F148021344403B1B78994246
:1018900061D17B6C01337A68134419783A6C134632
:1018A000DB009B1A07F1480213443F3B1B78994227
:1018B00051D17B6C02337A68134419783A6C134621
:1018C000DB009B1A07F1480213443E3B1B78994208
:1018D00041D17B6C03337A68134419783A6C134610
:1018E000DB009B1A07F1480213443D3B1B789942E9
:1018F00031D17B6C04337A68134419783A6C1346FF
:10190000DB009B1A07F1480213443C3B1B789942C9
:1019100021D17B6C05337A68134419783A6C1346ED
:10192000DB009B1A07F1480213443B3B1B789942AA
:1019300011D17B6C06337A68134419783A6C1346DC
:10194000DB009B1A07F1480213443A3B1B7899428B
:1019500001D101230DE03B6C01333B643B6C072B51
:1019600088DD7B6C01337B647B6C2B2B7FF77FAF37
:10197000002318464837BD46F0BC704724340000A9
:1019800080B584B000AF00237B600023FB600023A0
:10199000BB6000F06FFAFFF785F8FFF75DF9FFF71E
:1019A0008DF94EE000BF2A4B1B68002B03D1294B59
:1019B0001B68002BF7D0264B1B6803F00103002B9C
:1019C00009D0254B1B687B60244B1A68224B1A6098
:1019D000224B7A681A601F4B1B68002B02D0204BE9
:1019E00010221A601A4B1B68002B24D0184B1B685E
:1019F000012B03D91A4B4FF480721A60174B1B68E6
:101A00001846FFF717FF0346002B08D0154B02229C
:101A10001A606423FB60BB680133BB600BE0FB68AA
:101A2000002B05D10E4B02221A600023BB6002E09E
:101A3000FB68013BFB60064B00221A60054B00224D
:101A40001A60BB68132BADDD1037BD4680BD00BFEB
:101A5000E8050010802600104C040010500400100F
:101A60003CC0092038C0092080B485B000AF0346CF
:101A7000FB71FB794FF4C87202FB03F3FB60FB6858
:101A8000013BFB60FB68002BF9D11437BD465DF8C4
:101A9000047B704780B582B000AF00F02DF90023C1
:101AA0007B601CE0534B4FF480721A60514B102244
:101AB0001A60504B02221A60C820FFF7D5FF4E4B28
:101AC0004FF480721A604C4B10221A604A4B02226B
:101AD0001A60C820FFF7C8FF7B6801337B607B6812
:101AE000012BDFDD00F022FA424B4FF480721A60C6
:101AF000C820FFF7B9FF404B4FF480721A60C8202E
:101B0000FFF7B2FF00F0E2FA3A4B4FF480721A602E
:101B1000C820FFF7A9FF384B4FF480721A60C82025
:101B2000FFF7A2FF042000F061FA0346B3F5774FF8
:101B300000D0FEE72F4B4FF480721A60C820FFF7E9
:101B400093FF00F0DFFA00237B600EE0294B1022A8
:101B50001A60022000F098F8274B10221A60022029
:101B600000F092F87B6801337B607B68032BEDDD2E
:101B7000204B10221A60FEF74BFFFFF701FF1D4BB1
:101B800002221A60FEF72CFF00F05CFF1B4B1B6863
:101B9000002B02D0FFF7E4FC2BE0194B1B68032B52
:101BA00006D1184B1B68032B02D0FFF7FBF820E08F
:101BB000134B1B68052B06D1124B1B68052B02D05B
:101BC000FFF75CF915E00E4B1B68062B06D10D4B99
:101BD0001B68062B02D0FFF781FB0AE0084B1B684D
:101BE000042B06D1074B1B68042B02D0FFF74CFDDA
:101BF000CAE7C9E738C009203CC009202C050010FD
:101C0000240500102005001080B500AF00F01AFF79
:101C100080BD00BF80B582B000AF124B7B60124B1D
:101C20003B6007E03B681A1D3A607A68111D7960D5
:101C300012681A603A680D4B9A42F3D30C4B7B60E2
:101C400004E07B681A1D7A6000221A607A68094BEA
:101C50009A42F6D3FEF7B0FA074B084A1A60FFF72C
:101C600019FFFEE7A8340000200000100405001052
:101C7000040500108426001008ED00E000000000BC
:101C800080B400AFFEE700BF80B582B000AF03466E
:101C9000FB71FB79044A02FB03F3184600F006F8D7
:101CA0000837BD4680BD00BF40420F0080B483B0FE
:101CB00000AF78607B689A087B68DB081A447B6811
:101CC0009B091A447B68DB091A447B689B0A1A4407
:101CD0007B68DB0A1A44074B1A6000BF054B1B6880
:101CE000013B044A1360002BF8D10C37BD465DF868
:101CF000047B70475005001080B500AF00F036F847
:101D0000104B00221A60104B4CF212721A600F4BEB
:101D100040F2B1121A600E4B00221A600D4B4FF0C8
:101D200040521A600C4B00221A600C4B00221A60C1
:101D30000B4B00221A600B4B00221A600A4B002248
:101D40001A6080BD00C0092020C0092040C00920C1
:101D500060C0092080C0092014C0092034C00920B7
:101D600054C0092074C0092094C0092080B400AF79
:101D7000274B00221A60274B00221A60264B0022B4
:101D80001A60264B00221A60254B00221A60254B50
:101D900000221A60244B00221A60244B00221A6091
:101DA000234B00221A60234B00221A60224B002290
:101DB0001A60224B00221A60214B00221A60214B2C
:101DC00000221A60204B00221A60204B00221A6069
:101DD0001F4B00221A601F4B00221A601E4B00226C
:101DE0001A601E4B00221A601D4B00221A601D4B08
:101DF00000221A601C4B00221A601C4B00221A6041
:101E00001B4B00221A60BD465DF8047B704700BF83
:101E100000C0024004C0024008C002400CC00240A2
:101E200010C002401CC0024024C0024028C0024032
:101E300000C0092020C0092040C0092060C009203E
:101E400080C0092040C0024044C0024048C0024057
:101E50004CC0024050C002405CC0024064C002401E
:101E600014C0092034C0092054C0092074C00920BE
:101E700094C0092080B400AF164B164A126822F4B1
:101E8000404242F400421A60124B124A126822F495
:101E9000405242F400521A600E4B0E4A126822F46D
:101EA000403242F400321A600A4B0A4A126822F4A5
:101EB000402242F400221A60074B4FF080521A6011
:101EC000064BC7221A60064B0C221A60BD465DF80D
:101ED000047B704700C0024098C009200000034006
:101EE0000400034080B400AF0D4B0D4A126822F489
:101EF00070121A600B4B0B4A126822F0C0621A6013
:101F0000094B094A126842F420121A60064B064A2D
:101F1000126822F4A0121A60BD465DF8047B704777
:101F200004C0024000C0092044C0024080B500AF98
:101F3000FFF7D8FF094B4FF400721A603220FFF709
:101F4000B5FE074B20221A60044B4FF480421A6002
:101F50000D2047F6FF7100F05FF880BD38C0092002
:101F600058C0092080B485B000AF03463960FB71CA
:101F7000FB79013B012202FA03F3FB60184B20229C
:101F80001A601EE03A68FB681340002B03D0154B23
:101F900001221A6002E0124B01221A603B685B00CA
:101FA0003B60104B10221A600F4B1B6803F00203BA
:101FB000002B03D03B6843F001033B60084B102229
:101FC0001A60FB795A1EFA71002BDBD1054B2022D7
:101FD0001A603B6818461437BD465DF8047B7047AD
:101FE0005CC0092058C0092054C0092080B584B0C5
:101FF00000AF0346FB71FB7963F07F03DBB21B0488
:10200000FB601820F968FFF7ADFFB860BB689BB2B2
:1020100018461037BD4680BD80B584B000AF02467B
:102020000B46FA71BB80FB791A04BB881343FB6033
:102030001820F968FFF796FF1037BD4680BD00BF36
:1020400080B584B000AF0346FB71FB7963F07F037A
:10205000DBB21B02FB81FB8910201946FFF782FFD0
:102060000346BB81BB89DBB218461037BD4680BD35
:1020700080B584B000AF02460B46FA71BB71FB79A4
:102080001A02BB791343FB601020F968FFF76AFF5F
:102090001037BD4680BD00BF80B500AF08200021CD
:1020A000FFF760FF0346DBB2184680BD80B582B003
:1020B00000AF0346FB71FB7908201946FFF752FF7A
:1020C0000346DBB218460837BD4680BD80B500AF79
:1020D00000200021FFF7A0FF00BF0020FFF786FFD0
:1020E0000346002BF9D100204FF40041FFF794FF85
:1020F00000BF0020FFF77AFF0346B3F5004FF8D189
:1021000080BD00BF80B500AF5E4B44F23A021A605A
:102110005D4B00221A605D4B5C4A126822F002029D
:102120001A605B4BAA221A60594B55221A6000BFF5
:10213000584B1B6803F00073002BF9D1534B534AE3
:10214000126822F001021A60514BAA221A60504B09
:1021500055221A6000BF4F4B1B6803F08073002BA1
:10216000F9D14D4B00221A60FFF7B0FF082041F271
:102170007051FFF751FF6020FFF798FF00BFFFF796
:102180008BFF034603F04003002BF8D0434B202283
:102190001A6000BF414B1B6803F04003002BF9D0CD
:1021A0003F4B08221A603F4B00221A60364B012237
:1021B0001A603D4B3D4A1A60354BAA221A60344BD7
:1021C00055221A60314B314A126842F001021A60FE
:1021D0002F4BAA221A602E4B55221A6000BF2D4B9E
:1021E0001B6803F08073002BF9D02B4B03221A607D
:1021F000264B264A126842F002021A60244BAA2299
:102200001A60234B55221A6000BF224B1B6803F053
:102210000073002BF9D0264B22221A60254BAA22EC
:102220001A60244B55221A60234B234A126842F04D
:1022300001021A601F4BAA221A601E4B55221A6017
:1022400000BF1E4B1B6803F48073002BF9D000BF46
:102250001A4B1B6803F48063002BF9D0164B164A07
:10226000126842F002021A60124BAA221A60114B45
:1022700055221A6000BF114B1B6803F40073002B3A
:10228000F9D080BD00C00F400CC10F4080C00F408E
:102290008CC00F4088C00F4004C10F40A0C10F4048
:1022A000A8C10F40ACC10F4084C00F40180001000E
:1022B000A4C00F40ACC00F40A0C00F40A8C00F404A
:1022C00080B500AFFFF752FD0A4B02221A604FF0B3
:1022D00080434FF08042126842F003021A60064BBE
:1022E000AA221A60044B55221A600120FFF7CCFC89
:1022F00080BD00BF3CC009200800004080B588B008
:1023000000AFF860B9607A60FB681B785B09DBB2EC
:1023100003F00303FB61FB69022B0ED100237B61F9
:1023200007F11403F8681946BA687B6800F0CAFC24
:102330000346002B01D07B690FE00A4BFA6953F882
:102340002230BB61BB69002B01D1002305E0BB69D2
:10235000F868B9687A689847034618462037BD463A
:1023600080BD00BF6805001080B584B000AF034693
:10237000FB718020012100F07DFA074BBB60002338
:10238000FB6002E0FB680133FB60FB68072BF9DDB3
:102390001037BD4680BD00BF5405001080B582B027
:1023A00000AF0E4B1B68402BA8BF40237B600C4B3B
:1023B0001A687B68802011461A4600F07DFA084BA7
:1023C0001A687B681A44064B1A60044B1A687B68CB
:1023D000D21A024B1A600837BD4680BD6005001056
:1023E0005C05001080B584B000AF02460B46FA7160
:1023F000BB71FB79002B40F09180BB7903F00403A3
:10240000002B41D000204949082200F0A3FA474B95
:102410001B785B09DBB203F00303FB60444BFA68F3
:1024200053F82220434B1A60404BDB881A46424B3C
:102430001A603E4BDB881A46404B1A603B4BDB88E8
:10244000002B07D0394B1B78DB09DBB203F001030B
:10245000002B68D035483949364AFFF74FFF03460D
:10246000002B04D1BB791846FFF77EFF5BE02F4BB2
:10247000DB881A46314B1B689A42A8BF1A462E4B7E
:102480001A60FFF78BFF4EE02B4B1B68002B3EDDE5
:10249000284B1A68284B1B68002011461A4600F08A
:1024A00059FAB860BB68002B04DABB791846FFF70D
:1024B0005BFF38E01F4B1A68BB681A441D4B1A605B
:1024C0001D4B1A68BB68D21A1B4B1A601A4B1B684B
:1024D000002B28D1154B1B785B09DBB203F00303FB
:1024E000FB60134BFA6853F82220124B1A600F4816
:1024F0001249104AFFF702FF0346002B04D1BB79B3
:102500001846FFF731FF0EE0FFF748FF0BE0002011
:102510000021002200F01EFAB86004E0FB79802B55
:1025200001D1FFF73BFF1037BD4680BD54050010B9
:10253000780500105C0500106005001064050010AF
:1025400080B485B000AFF860B9607A60074BFA6874
:10255000B96843F82210064BFA68796843F82210EC
:102560001437BD465DF8047B704700BF6805001056
:102570007805001080B483B000AF0346FB710C37C0
:10258000BD465DF8047B704780B500AF00F024FBCA
:102590000D4800F011F900200C4900F0DBF8802014
:1025A0000A4900F0D7F80020402100F0B7F8802059
:1025B000402100F0B3F800200549064AFFF7C0FFAC
:1025C0000123184680BD00BF75250000E5230000EB
:1025D000913100008805001080B483B000AF7860AE
:1025E00000BF074B1A687B681A407B689A42F8D193
:1025F000044B7A681A600C37BD465DF8047B70475F
:1026000000C2005008C2005080B582B000AF03463F
:10261000FB71074B30221A60064BFA79120442F420
:10262000A0621A601020FFF7D7FF0837BD4680BDB3
:1026300008C2005010C2005080B582B000AF024600
:102640000B46FA71BB80FB791846FFF7DDFF064B9E
:10265000BA88120442F480721A601020FFF7BCFF9F
:102660000837BD4680BD00BF10C2005080B582B0A3
:1026700000AF0346FB71FB791846FFF7C5FF084B17
:10268000FA79120442F400721A602020FFF7A4FFC6
:10269000044B1B68DBB218460837BD4680BD00BF3F
:1026A00010C2005014C2005080B582B000AF7860F4
:1026B0000B467B800A4B0A4A116801207A6800FAAF
:1026C00002F20A431A60074B7A681A60064B7A884E
:1026D0001A604FF48070FFF77FFF0837BD4680BD5A
:1026E00044C2005048C200504CC2005080B582B075
:1026F00000AF786039607B68DBB243F04003DBB247
:10270000DAB23B68002B01D0002300E02023104602
:102710001946FFF791FF0837BD4680BD80B584B0EC
:1027200000AF02460B46FA71BB80FB7903F00F0342
:102730005A00FB79DB09DBB21343FB60BB88F86806
:102740001946FFF7B1FFF8680121FFF7CFFF1037F7
:10275000BD4680BD80B485B000AF03463960FB71D3
:10276000FB7903F00F035A00FB79DB09DBB213435B
:10277000FB60FB68DA0F13445B101A460B4B396899
:1027800043F822100A4B0A4A11680120FA6800FA3D
:1027900002F20A431A60074B064A126842F004022A
:1027A0001A601437BD465DF8047B7047940500102D
:1027B00034C2005004C2005080B483B000AF7860CF
:1027C000064B7A681A60064B054A126842F0080206
:1027D0001A600C37BD465DF8047B70479005001009
:1027E00004C2005080B582B000AF0346FB71FB7994
:1027F00063F07F03DBB2D0201946FFF71DFF0837D7
:10280000BD4680BD80B582B000AF78607B68002B8C
:102810000CBF00230123DBB2FE201946FFF70CFF9B
:102820000837BD4680BD00BF80B582B000AF03460B
:10283000FB71FB799BB2F3201946FFF7FDFE0837C9
:10284000BD4680BD80B584B000AF0346FB71FB7907
:1028500003F00F035A00FB79DB09DBB21343FB6083
:10286000FB68DBB21846FFF701FF03461846103736
:10287000BD4680BD80B584B000AF03463960FB71B2
:10288000FB7903F00F035A00FB79DB09DBB213433A
:10289000FB60FB68DBB243F04003DBB2DAB23B68BB
:1028A000002B0CBF00230123DBB210461946FFF7B3
:1028B000C3FE1037BD4680BD80B586B000AF03466D
:1028C000B9607A60FB73FB7B03F00F035A00FB7B5C
:1028D000DB09DBB213437B611B4BFA7B02F00F0277
:1028E000920042F002021A60184B7A681A6015E0F2
:1028F000174BBA68033212781106BA68023212789E
:1029000012041143BA680132127812021143BA68F4
:1029100012780A431A60BB680433BB600A4B1B6819
:1029200003F00203002BE3D1074B00221A607B69FE
:10293000DBB21846FFF768FEFA20FFF765FE7B68FA
:1029400018461837BD4680BD28C2005024C200502A
:102950001CC2005080B588B000AF0346B9607A60F1
:10296000FB73FB7B03F00F035A00FB7BDB09DBB23D
:1029700013437B61274BFA7B02F00F02920042F077
:1029800001021A60244B1B683B613B6903F400633E
:10299000002BF7D03B6903F48063002B02D14FF08A
:1029A000FF3333E03B69C3F309033B610023BB61A1
:1029B0000023FB611AE0FB6903F00303002B02D143
:1029C000164B1B68BB61BB68002B09D0FA697B689A
:1029D0009A4205D2BA68FB691344BA69D2B21A7036
:1029E000BB691B0ABB61FB690133FB61FA693B6987
:1029F0009A42E0D3074B00221A607B69DBB218468B
:102A0000FFF702FEF220FFF7FFFD3B691846203773
:102A1000BD4680BD28C2005020C2005018C20050E0
:102A200080B582B000AF78607B68002B0CBF0023BC
:102A30000123DBB2D8201946FFF7FEFD0837BD465B
:102A400080BD00BF80B586B000AF5B4B1B683B61AB
:102A50003B6903F00103002B10D0584B01221A6090
:102A6000574B1B68002B09D0F520FFF7FFFD0346ED
:102A7000FB81534B1B68FA89104698473B6903F06A
:102A80000803002B2BD04D4B08221A60FE20FFF7C5
:102A9000EDFD03467B737B7B03F01A03002B1ED0F6
:102AA0007B7B03F00103002B0CBF00230123DBB26F
:102AB000DAB27B7B03F00403DBB21343DAB27B7B35
:102AC00003F01003DBB21343DBB23B733D4B1B68D7
:102AD000002B04D03B4B1B683A7B104698473B6960
:102AE00003F00403002B63D0344B04221A6000234C
:102AF0007B615AE001227B6902FA03F3BB60324B2F
:102B00001A68BB681340002B4CD0304BBA681A606F
:102B10002020FFF761FD2E4B1B68FB71FB7903F052
:102B20000103002B0CBF00230123DBB2DAB2FB79D7
:102B300003F00203DBB21343DAB2FB7903F00403C0
:102B4000DBB21343DAB2FB7903F01003DBB21343B9
:102B5000DAB2FB7903F00803DBB21343DBB23B7359
:102B60007B69DA0F13445B101A461A4B53F8223074
:102B7000002B17D07B69DA0F13445B101A46154BF4
:102B800053F822307A69D201D1B27A695210D2B2A6
:102B900002F00F02D2B20A43D2B2D1B23A7B084657
:102BA000114698477B6901337B617B691F2BA1DD4F
:102BB0001837BD4680BD00BF00C2005008C200509B
:102BC000D40500109005001030C2005038C20050EB
:102BD00014C200509405001080B500AF2D4B2D4A53
:102BE000126822F4402242F480221A602A4B2A4AB8
:102BF000126822F0300242F010021A60264B264A78
:102C0000126822F0405242F000521A60234B234ACD
:102C1000126822F0406242F080621A601F4B1F4A25
:102C2000126822F0405242F080521A601C4B1C4A3B
:102C3000126842F000421A601A4B1A4A126842F0B7
:102C400012021A6000BF184B1B6803F00203002B2E
:102C5000F9D000BF144B1B6803F01003002BF9D010
:102C6000124B00221A60124B4FF0FF321A60114BC8
:102C700000221A60104B00221A60104B4FF0FF32F6
:102C80001A600F4B00221A600020FFF7CDFD0123D0
:102C9000184680BD10C002400CC0024004C0024073
:102CA000C4C00F40F4CF0050F8CF005004C2005011
:102CB00008C200502CC2005034C2005038C200502C
:102CC00040C2005080B489B000AFF860B9607A604B
:102CD0003B602D4B1B78002B01D100234EE0FB689D
:102CE0005A78294B1B789A4247D1BB6800221A6058
:102CF000FB68DB88FB61FB685B88FB76FB685B88B5
:102D00001B0A9BB2BB76FB689B88042B02D0052B69
:102D100007D00DE03B681D4A1A607B6828221A60C4
:102D200008E03B681A4A1A607B6892221A6001E048
:102D3000012323E0BB7E1B047B617B681A687B69EF
:102D40009A4201DA012319E03B681A687B691A4448
:102D50003B681A607B681A687B69D21A7B681A60C4
:102D60007B681A68FB699A4202DD7B68FA691A601F
:102D7000BB6801221A60012300E0002318462437B3
:102D8000BD465DF8047B7047E40500105C3400002C
:102D90007004001080B483B000AF78603960084BD5
:102DA0001A78084B1A743B68064A1A607B6812222C
:102DB0001A60012318460C37BD465DF8047B704746
:102DC000E40500105C04001080B483B000AF7860AC
:102DD000034B7A681A600C37BD465DF8047B704778
:102DE000E005001080B588B000AFBA607B60034694
:102DF000FB810B46BB81FB891B0A9BB2FB75FB89E0
:102E0000BB75FB7D032B0BD1BB7DEE2B08D1B868C6
:102E10007968FFF7BFFF0346002B01D0012335E09F
:102E20001C4B1B68FB610023BB612AE0FB6901337B
:102E30001B78FA7D9A421FD1BA7DBB699A4218D19C
:102E40007B68FA691A60FB7D022B0BD1FB690233A8
:102E50001B781A46FB6903331B781B021A43BB68B5
:102E60001A6004E0FB691B781A46BB681A600123EC
:102E70000CE0BB690133BB61FB691B78FA69134441
:102E8000FB61FB691B78002BD0D10023184620374B
:102E9000BD4680BDE005001080B586B000AF02469B
:102EA0000B46FA71BB71FB79002B03D10020FFF7B1
:102EB000B7FD44E0244B1B687B61FF23FB74FF23B9
:102EC000BB7435E07B6901331B78042B08D0052BDC
:102ED0000AD0022B00D026E07B695B79FB7422E0EC
:102EE0007B69DB78BB741EE0FA7CFB799A4219D1CE
:102EF000BA7CBB799A4215D17B699B787B747B69DC
:102F000004331B781A467B6905331B781B029BB27E
:102F100013439BB2FB817A7CFB8910461946FFF76D
:102F2000FDFBFFE700BF7B691B787A6913447B6177
:102F30007B691B78002BC5D10120FFF771FD0123B0
:102F400018461837BD4680BDE005001080B586B034
:102F500000AFF860B9607A607B681B687B61FB68D2
:102F60005B78092B52D801A252F823F0952F00006C
:102F7000053000000D300000053000000D3000006D
:102F8000AB2F0000B92F000009300000D12F000046
:102F9000E12F00007B6900221A707B690133002257
:102FA0001A70BB6802221A6032E0FB685B88DBB2F1
:102FB0001846FFF717FC2BE0FB685A88FB689B88D4
:102FC00010461946BA687B68FFF70CFF034620E0FD
:102FD000124B1A787B691A70BB6801221A6017E0DD
:102FE000FB685B88DBB218460021FFF755FF0346FC
:102FF000002B01D100230CE0FB685B88DAB2074BA1
:103000001A7005E0002304E0002302E0002300E042
:10301000012318461837BD4680BD00BFD8050010F3
:1030200080B487B000AFF860B9607A607B681B68D5
:103030007B61FB685B780B2B38D801A252F823F038
:103040007130000087300000AD3000008730000094
:10305000AD300000AD300000AD300000AD300000FC
:10306000AD300000AD3000008B3000009930000022
:103070007B6900221A707B69013300221A70BB68D9
:1030800002221A6014E0002313E07B6900221A7008
:10309000BB6801221A600BE0FB685B88002B01D043
:1030A000002306E0BB6800221A6001E0002300E074
:1030B000012318461C37BD465DF8047B704700BFEE
:1030C00080B586B000AFF860B9607A607B681B6835
:1030D0007B61FB685B780C2B53D801A252F823F07C
:1030E00015310000473100008331000063310000DA
:1030F0008331000083310000833100008331000000
:1031000083310000833100008331000083310000EF
:103110007F310000FB689B88DBB21846FFF792FB0B
:10312000034603F00203002B0CBF00230123DBB294
:103130001A467B691A707B69013300221A70BB68DA
:1031400002221A601FE0FB685B88002B07D1FB6836
:103150009B88DBB218460021FFF78CFB13E00023AD
:1031600012E0FB685B88002B07D1FB689B88DBB211
:1031700018460121FFF77EFB05E0002304E0002351
:1031800002E0002300E0012318461837BD4680BD49
:1031900080B584B000AFF860B9607A60194B1B68E5
:1031A000002B0AD0174B1B68F868B9687A689847F3
:1031B0000346002B01D001231FE0FB681B7803F0BE
:1031C0001F03012B0AD0022B0FD0002B14D1F8685B
:1031D000B9687A68FFF7BAFE03460EE0F868B96886
:1031E0007A68FFF71DFF034607E0F868B9687A6858
:1031F000FFF766FF034600E0002318461037BD4680
:1032000080BD00BFDC050010844641EA000313F0D6
:10321000030349D1403A23D30B6803604B684360F2
:103220008B688360CB68C3600B6903614B69436142
:103230008B698361CB69C3610B6A03624B6A43622A
:103240008B6A8362CB6AC3620B6B03634B6B436312
:103250008B6B8363CB6BC36340304031403ADBD22E
:1032600030320BD30B6803604B6843608B6883601C
:10327000CB68C36010301031103AF3D20C3205D352
:1032800051F8043B40F8043B043AF9D2043208D028
:10329000D2071CBF11F8013B00F8013B01D30B889A
:1032A00003806046704700BF082A13D38B07B1D054
:1032B00010F00303AED0C3F10403D21ADB071CBF26
:1032C00011F8013B00F8013BA4D331F8023B20F890
:1032D000023B9FE7043AD9D3013A11F8013B00F8C9
:1032E000013BF9D20B7803704B7843708B78837075
:1032F0006046704720F0030110F00300C0F10000A9
:1033000051F8043B00F1040C4FEACC0C6FF00002C2
:103310001CBF22FA0CF213434FF0010C4CEA0C2CA8
:103320004CEA0C4CA3EB0C0222EA030212EACC1288
:1033300004BF51F8043B0430F4D0C2F1000102EAAA
:103340000102B2FA82F2C2F11F0200EBD200704712
:10335000430000002000001012010002FF000040A6
:10336000FFFF040000010102030109022000010126
:103370000080320904000002FF00000007058202FD
:10338000400000070505024000000403090444034F
:1033900068007400740070003A002F002F00750060
:1033A00062006500720074006F006F0074006800B6
:1033B0002E0073006F0075007200630065006600E8
:1033C0006F007200670065002E006E0065007400DB
:1033D0002F003003750062006500720074006F00FA
:1033E0006F007400680020006100730073006500C6
:1033F0006D0062006C0079005F007400650073006E
:103400007400120330003000300030003000300013
:103410003000310000000000323031352D30392DC0
:1034200052320000475C58CC73345E8EB8B198E6D7
:1034300068BC11D716331CCD1723AE2C66399A2FD2
:1034400075C58CC73345E7EB8B198E668BCE1D7126
:103450006331CCD1793AE2C66399A2F32800000027
:1034600000010400010000000000000000015749B5
:103470004E55534200000000000000000000000014
:1034800000000000F8B500BFF8BC08BC9E467047BD
:10349000C102000045010000F8B500BFF8BC08BC3F
:0834A0009E4670471D0100006B
:1034A800000000000C03001074030010DC0300107F
:1034B8000000000000000000000000000000000004
:1034C80000000000000000000000000000000000F4
:1034D8000000000050330000000000000000000061
:1034E80000000000000000000000000000000000D4
:1034F80000000000000000000000000000000000C4
:1035080000000000000000000000000000000000B3
:1035180000000000000000000000000000000000A3
:103528000000000000000000000000000000000093
:103538000000000000000000000000000000000083
:103548000000000000000000010000000000000072
:103558000E33CDAB34126DE6ECDE05000B00000037
:103568000000000000000000000000000000000053
:103578000000000000000000000000000000000043
:103588000000000000000000000000000000000033
:103598000000000000000000000000000000000023
:1038C8000000000000000000F11FFF1F4C26001040
:1038D8000026001089096009B309000012034D0091
:1038E8005300460054003100300030004100000011
:1038F8009200000000010500010088000000070098
:1039080000002A0044006500760069006300650035
:1039180049006E0074006500720066006100630073
:10392800650047005500490044007300000050003E
:1039380000007B00300031003200330034003500D5
:10394800360037002D0030003100320033002D00E2
:1039580034003500360037002D003800390061008A
:1039680062002D0030003100320033003400350091
:103978003600370038003900610062007D00000021
:04398800000000003B
:0400000300001C15C8
:00000001FF
